{
  "contractName": "Healthcare",
  "abi": [
    {
      "anonymous": false,
      "inputs": [
        {
          "indexed": true,
          "internalType": "address",
          "name": "patient",
          "type": "address"
        },
        {
          "indexed": true,
          "internalType": "address",
          "name": "doctor",
          "type": "address"
        },
        {
          "indexed": false,
          "internalType": "uint256",
          "name": "amount",
          "type": "uint256"
        },
        {
          "indexed": false,
          "internalType": "uint256",
          "name": "timestamp",
          "type": "uint256"
        }
      ],
      "name": "ConsultationPaid",
      "type": "event"
    },
    {
      "inputs": [
        {
          "internalType": "address",
          "name": "",
          "type": "address"
        }
      ],
      "name": "doctors",
      "outputs": [
        {
          "internalType": "string",
          "name": "name",
          "type": "string"
        },
        {
          "internalType": "string",
          "name": "specialization",
          "type": "string"
        },
        {
          "internalType": "bool",
          "name": "isRegistered",
          "type": "bool"
        }
      ],
      "stateMutability": "view",
      "type": "function",
      "constant": true
    },
    {
      "inputs": [
        {
          "internalType": "address",
          "name": "",
          "type": "address"
        }
      ],
      "name": "patients",
      "outputs": [
        {
          "internalType": "string",
          "name": "name",
          "type": "string"
        },
        {
          "internalType": "uint256",
          "name": "age",
          "type": "uint256"
        },
        {
          "internalType": "string",
          "name": "gender",
          "type": "string"
        }
      ],
      "stateMutability": "view",
      "type": "function",
      "constant": true
    },
    {
      "inputs": [
        {
          "internalType": "string",
          "name": "_name",
          "type": "string"
        },
        {
          "internalType": "uint256",
          "name": "_age",
          "type": "uint256"
        },
        {
          "internalType": "string",
          "name": "_gender",
          "type": "string"
        }
      ],
      "name": "registerPatient",
      "outputs": [],
      "stateMutability": "nonpayable",
      "type": "function"
    },
    {
      "inputs": [
        {
          "internalType": "string",
          "name": "_name",
          "type": "string"
        },
        {
          "internalType": "string",
          "name": "_specialization",
          "type": "string"
        }
      ],
      "name": "registerDoctor",
      "outputs": [],
      "stateMutability": "nonpayable",
      "type": "function"
    },
    {
      "inputs": [
        {
          "internalType": "address",
          "name": "_doctor",
          "type": "address"
        }
      ],
      "name": "authorizeDoctor",
      "outputs": [],
      "stateMutability": "nonpayable",
      "type": "function"
    },
    {
      "inputs": [
        {
          "internalType": "address",
          "name": "_doctor",
          "type": "address"
        }
      ],
      "name": "revokeDoctor",
      "outputs": [],
      "stateMutability": "nonpayable",
      "type": "function"
    },
    {
      "inputs": [
        {
          "internalType": "address",
          "name": "_patient",
          "type": "address"
        }
      ],
      "name": "getAuthorizedDoctors",
      "outputs": [
        {
          "internalType": "address[]",
          "name": "",
          "type": "address[]"
        }
      ],
      "stateMutability": "view",
      "type": "function",
      "constant": true
    },
    {
      "inputs": [
        {
          "internalType": "address",
          "name": "_patient",
          "type": "address"
        },
        {
          "internalType": "string",
          "name": "_record",
          "type": "string"
        }
      ],
      "name": "addRecord",
      "outputs": [],
      "stateMutability": "nonpayable",
      "type": "function"
    },
    {
      "inputs": [
        {
          "internalType": "address",
          "name": "_patient",
          "type": "address"
        }
      ],
      "name": "viewRecords",
      "outputs": [
        {
          "internalType": "string[]",
          "name": "",
          "type": "string[]"
        }
      ],
      "stateMutability": "view",
      "type": "function",
      "constant": true
    },
    {
      "inputs": [
        {
          "internalType": "address",
          "name": "_doctor",
          "type": "address"
        }
      ],
      "name": "payConsultationFee",
      "outputs": [],
      "stateMutability": "payable",
      "type": "function",
      "payable": true
    }
  ],
  "bytecode": "0x608060405234801561001057600080fd5b50611d98806100206000396000f3fe6080604052600436106100915760003560e01c806366858ec81161005957806366858ec81461016c5780637a51967214610195578063833b46bb146101d2578063a9583c22146101fb578063cbf8a64b1461023a57610091565b80630416af27146100965780630869cfbc146100bf5780631d14c36e146100fe5780633df31d4a1461012757806358c9202c14610143575b600080fd5b3480156100a257600080fd5b506100bd60048036038101906100b89190611159565b610277565b005b3480156100cb57600080fd5b506100e660048036038101906100e19190611159565b610447565b6040516100f59392919061122f565b60405180910390f35b34801561010a57600080fd5b50610125600480360381019061012091906113d5565b610581565b005b610141600480360381019061013c9190611159565b61066a565b005b34801561014f57600080fd5b5061016a60048036038101906101659190611159565b6107ed565b005b34801561017857600080fd5b50610193600480360381019061018e9190611460565b610892565b005b3480156101a157600080fd5b506101bc60048036038101906101b79190611159565b610a68565b6040516101c991906115c8565b60405180910390f35b3480156101de57600080fd5b506101f960048036038101906101f491906115ea565b610e21565b005b34801561020757600080fd5b50610222600480360381019061021d9190611159565b610ed1565b6040516102319392919061167d565b60405180910390f35b34801561024657600080fd5b50610261600480360381019061025c9190611159565b611018565b60405161026e9190611780565b60405180910390f35b60008060003373ffffffffffffffffffffffffffffffffffffffff1673ffffffffffffffffffffffffffffffffffffffff168152602001908152602001600020600401905060005b8180549050811015610442578273ffffffffffffffffffffffffffffffffffffffff168282815481106102f5576102f46117a2565b5b9060005260206000200160009054906101000a900473ffffffffffffffffffffffffffffffffffffffff1673ffffffffffffffffffffffffffffffffffffffff160361042f57816001838054905061034d9190611800565b8154811061035e5761035d6117a2565b5b9060005260206000200160009054906101000a900473ffffffffffffffffffffffffffffffffffffffff1682828154811061039c5761039b6117a2565b5b9060005260206000200160006101000a81548173ffffffffffffffffffffffffffffffffffffffff021916908373ffffffffffffffffffffffffffffffffffffffff160217905550818054806103f5576103f4611834565b5b6001900381819060005260206000200160006101000a81549073ffffffffffffffffffffffffffffffffffffffff02191690559055610442565b808061043a90611863565b9150506102bf565b505050565b600060205280600052604060002060009150905080600001805461046a906118da565b80601f0160208091040260200160405190810160405280929190818152602001828054610496906118da565b80156104e35780601f106104b8576101008083540402835291602001916104e3565b820191906000526020600020905b8154815290600101906020018083116104c657829003601f168201915b5050505050908060010154908060020180546104fe906118da565b80601f016020809104026020016040519081016040528092919081815260200182805461052a906118da565b80156105775780601f1061054c57610100808354040283529160200191610577565b820191906000526020600020905b81548152906001019060200180831161055a57829003601f168201915b5050505050905083565b826000803373ffffffffffffffffffffffffffffffffffffffff1673ffffffffffffffffffffffffffffffffffffffff16815260200190815260200160002060000190816105cf9190611ab7565b50816000803373ffffffffffffffffffffffffffffffffffffffff1673ffffffffffffffffffffffffffffffffffffffff16815260200190815260200160002060010181905550806000803373ffffffffffffffffffffffffffffffffffffffff1673ffffffffffffffffffffffffffffffffffffffff16815260200190815260200160002060020190816106649190611ab7565b50505050565b600034116106ad576040517f08c379a00000000000000000000000000000000000000000000000000000000081526004016106a490611bd5565b60405180910390fd5b600160008273ffffffffffffffffffffffffffffffffffffffff1673ffffffffffffffffffffffffffffffffffffffff16815260200190815260200160002060020160009054906101000a900460ff1661073c576040517f08c379a000000000000000000000000000000000000000000000000000000000815260040161073390611c41565b60405180910390fd5b8073ffffffffffffffffffffffffffffffffffffffff166108fc349081150290604051600060405180830381858888f19350505050158015610782573d6000803e3d6000fd5b508073ffffffffffffffffffffffffffffffffffffffff163373ffffffffffffffffffffffffffffffffffffffff167fcecc2bf5d04821a77149aed37a278e43dde39f2c29dca7262b6b3ff53d474a6234426040516107e2929190611c61565b60405180910390a350565b6000803373ffffffffffffffffffffffffffffffffffffffff1673ffffffffffffffffffffffffffffffffffffffff168152602001908152602001600020600401819080600181540180825580915050600190039060005260206000200160009091909190916101000a81548173ffffffffffffffffffffffffffffffffffffffff021916908373ffffffffffffffffffffffffffffffffffffffff16021790555050565b6000805b6000808573ffffffffffffffffffffffffffffffffffffffff1673ffffffffffffffffffffffffffffffffffffffff168152602001908152602001600020600401805490508110156109ae573373ffffffffffffffffffffffffffffffffffffffff166000808673ffffffffffffffffffffffffffffffffffffffff1673ffffffffffffffffffffffffffffffffffffffff168152602001908152602001600020600401828154811061094c5761094b6117a2565b5b9060005260206000200160009054906101000a900473ffffffffffffffffffffffffffffffffffffffff1673ffffffffffffffffffffffffffffffffffffffff160361099b57600191506109ae565b80806109a690611863565b915050610896565b50806109ef576040517f08c379a00000000000000000000000000000000000000000000000000000000081526004016109e690611cd6565b60405180910390fd5b6000808473ffffffffffffffffffffffffffffffffffffffff1673ffffffffffffffffffffffffffffffffffffffff16815260200190815260200160002060030182908060018154018082558091505060019003906000526020600020016000909190919091509081610a629190611ab7565b50505050565b60608173ffffffffffffffffffffffffffffffffffffffff163373ffffffffffffffffffffffffffffffffffffffff1603610bb5576000808373ffffffffffffffffffffffffffffffffffffffff1673ffffffffffffffffffffffffffffffffffffffff168152602001908152602001600020600301805480602002602001604051908101604052809291908181526020016000905b82821015610baa578382906000526020600020018054610b1d906118da565b80601f0160208091040260200160405190810160405280929190818152602001828054610b49906118da565b8015610b965780601f10610b6b57610100808354040283529160200191610b96565b820191906000526020600020905b815481529060010190602001808311610b7957829003601f168201915b505050505081526020019060010190610afe565b505050509050610e1c565b60005b6000808473ffffffffffffffffffffffffffffffffffffffff1673ffffffffffffffffffffffffffffffffffffffff16815260200190815260200160002060040180549050811015610de0573373ffffffffffffffffffffffffffffffffffffffff166000808573ffffffffffffffffffffffffffffffffffffffff1673ffffffffffffffffffffffffffffffffffffffff1681526020019081526020016000206004018281548110610c6e57610c6d6117a2565b5b9060005260206000200160009054906101000a900473ffffffffffffffffffffffffffffffffffffffff1673ffffffffffffffffffffffffffffffffffffffff1603610dcd576000808473ffffffffffffffffffffffffffffffffffffffff1673ffffffffffffffffffffffffffffffffffffffff168152602001908152602001600020600301805480602002602001604051908101604052809291908181526020016000905b82821015610dc1578382906000526020600020018054610d34906118da565b80601f0160208091040260200160405190810160405280929190818152602001828054610d60906118da565b8015610dad5780601f10610d8257610100808354040283529160200191610dad565b820191906000526020600020905b815481529060010190602001808311610d9057829003601f168201915b505050505081526020019060010190610d15565b50505050915050610e1c565b8080610dd890611863565b915050610bb8565b506040517f08c379a0000000000000000000000000000000000000000000000000000000008152600401610e1390611d42565b60405180910390fd5b919050565b604051806060016040528083815260200182815260200160011515815250600160003373ffffffffffffffffffffffffffffffffffffffff1673ffffffffffffffffffffffffffffffffffffffff1681526020019081526020016000206000820151816000019081610e939190611ab7565b506020820151816001019081610ea99190611ab7565b5060408201518160020160006101000a81548160ff0219169083151502179055509050505050565b6001602052806000526040600020600091509050806000018054610ef4906118da565b80601f0160208091040260200160405190810160405280929190818152602001828054610f20906118da565b8015610f6d5780601f10610f4257610100808354040283529160200191610f6d565b820191906000526020600020905b815481529060010190602001808311610f5057829003601f168201915b505050505090806001018054610f82906118da565b80601f0160208091040260200160405190810160405280929190818152602001828054610fae906118da565b8015610ffb5780601f10610fd057610100808354040283529160200191610ffb565b820191906000526020600020905b815481529060010190602001808311610fde57829003601f168201915b5050505050908060020160009054906101000a900460ff16905083565b60606000808373ffffffffffffffffffffffffffffffffffffffff1673ffffffffffffffffffffffffffffffffffffffff1681526020019081526020016000206004018054806020026020016040519081016040528092919081815260200182805480156110db57602002820191906000526020600020905b8160009054906101000a900473ffffffffffffffffffffffffffffffffffffffff1673ffffffffffffffffffffffffffffffffffffffff1681526020019060010190808311611091575b50505050509050919050565b6000604051905090565b600080fd5b600080fd5b600073ffffffffffffffffffffffffffffffffffffffff82169050919050565b6000611126826110fb565b9050919050565b6111368161111b565b811461114157600080fd5b50565b6000813590506111538161112d565b92915050565b60006020828403121561116f5761116e6110f1565b5b600061117d84828501611144565b91505092915050565b600081519050919050565b600082825260208201905092915050565b60005b838110156111c05780820151818401526020810190506111a5565b60008484015250505050565b6000601f19601f8301169050919050565b60006111e882611186565b6111f28185611191565b93506112028185602086016111a2565b61120b816111cc565b840191505092915050565b6000819050919050565b61122981611216565b82525050565b6000606082019050818103600083015261124981866111dd565b90506112586020830185611220565b818103604083015261126a81846111dd565b9050949350505050565b600080fd5b600080fd5b7f4e487b7100000000000000000000000000000000000000000000000000000000600052604160045260246000fd5b6112b6826111cc565b810181811067ffffffffffffffff821117156112d5576112d461127e565b5b80604052505050565b60006112e86110e7565b90506112f482826112ad565b919050565b600067ffffffffffffffff8211156113145761131361127e565b5b61131d826111cc565b9050602081019050919050565b82818337600083830152505050565b600061134c611347846112f9565b6112de565b90508281526020810184848401111561136857611367611279565b5b61137384828561132a565b509392505050565b600082601f8301126113905761138f611274565b5b81356113a0848260208601611339565b91505092915050565b6113b281611216565b81146113bd57600080fd5b50565b6000813590506113cf816113a9565b92915050565b6000806000606084860312156113ee576113ed6110f1565b5b600084013567ffffffffffffffff81111561140c5761140b6110f6565b5b6114188682870161137b565b9350506020611429868287016113c0565b925050604084013567ffffffffffffffff81111561144a576114496110f6565b5b6114568682870161137b565b9150509250925092565b60008060408385031215611477576114766110f1565b5b600061148585828601611144565b925050602083013567ffffffffffffffff8111156114a6576114a56110f6565b5b6114b28582860161137b565b9150509250929050565b600081519050919050565b600082825260208201905092915050565b6000819050602082019050919050565b600082825260208201905092915050565b600061150482611186565b61150e81856114e8565b935061151e8185602086016111a2565b611527816111cc565b840191505092915050565b600061153e83836114f9565b905092915050565b6000602082019050919050565b600061155e826114bc565b61156881856114c7565b93508360208202850161157a856114d8565b8060005b858110156115b657848403895281516115978582611532565b94506115a283611546565b925060208a0199505060018101905061157e565b50829750879550505050505092915050565b600060208201905081810360008301526115e28184611553565b905092915050565b60008060408385031215611601576116006110f1565b5b600083013567ffffffffffffffff81111561161f5761161e6110f6565b5b61162b8582860161137b565b925050602083013567ffffffffffffffff81111561164c5761164b6110f6565b5b6116588582860161137b565b9150509250929050565b60008115159050919050565b61167781611662565b82525050565b6000606082019050818103600083015261169781866111dd565b905081810360208301526116ab81856111dd565b90506116ba604083018461166e565b949350505050565b600081519050919050565b600082825260208201905092915050565b6000819050602082019050919050565b6116f78161111b565b82525050565b600061170983836116ee565b60208301905092915050565b6000602082019050919050565b600061172d826116c2565b61173781856116cd565b9350611742836116de565b8060005b8381101561177357815161175a88826116fd565b975061176583611715565b925050600181019050611746565b5085935050505092915050565b6000602082019050818103600083015261179a8184611722565b905092915050565b7f4e487b7100000000000000000000000000000000000000000000000000000000600052603260045260246000fd5b7f4e487b7100000000000000000000000000000000000000000000000000000000600052601160045260246000fd5b600061180b82611216565b915061181683611216565b925082820390508181111561182e5761182d6117d1565b5b92915050565b7f4e487b7100000000000000000000000000000000000000000000000000000000600052603160045260246000fd5b600061186e82611216565b91507fffffffffffffffffffffffffffffffffffffffffffffffffffffffffffffffff82036118a05761189f6117d1565b5b600182019050919050565b7f4e487b7100000000000000000000000000000000000000000000000000000000600052602260045260246000fd5b600060028204905060018216806118f257607f821691505b602082108103611905576119046118ab565b5b50919050565b60008190508160005260206000209050919050565b60006020601f8301049050919050565b600082821b905092915050565b60006008830261196d7fffffffffffffffffffffffffffffffffffffffffffffffffffffffffffffffff82611930565b6119778683611930565b95508019841693508086168417925050509392505050565b6000819050919050565b60006119b46119af6119aa84611216565b61198f565b611216565b9050919050565b6000819050919050565b6119ce83611999565b6119e26119da826119bb565b84845461193d565b825550505050565b600090565b6119f76119ea565b611a028184846119c5565b505050565b5b81811015611a2657611a1b6000826119ef565b600181019050611a08565b5050565b601f821115611a6b57611a3c8161190b565b611a4584611920565b81016020851015611a54578190505b611a68611a6085611920565b830182611a07565b50505b505050565b600082821c905092915050565b6000611a8e60001984600802611a70565b1980831691505092915050565b6000611aa78383611a7d565b9150826002028217905092915050565b611ac082611186565b67ffffffffffffffff811115611ad957611ad861127e565b5b611ae382546118da565b611aee828285611a2a565b600060209050601f831160018114611b215760008415611b0f578287015190505b611b198582611a9b565b865550611b81565b601f198416611b2f8661190b565b60005b82811015611b5757848901518255600182019150602085019450602081019050611b32565b86831015611b745784890151611b70601f891682611a7d565b8355505b6001600288020188555050505b505050505050565b7f466565206d757374206265203e20300000000000000000000000000000000000600082015250565b6000611bbf600f83611191565b9150611bca82611b89565b602082019050919050565b60006020820190508181036000830152611bee81611bb2565b9050919050565b7f446f63746f72206e6f7420726567697374657265640000000000000000000000600082015250565b6000611c2b601583611191565b9150611c3682611bf5565b602082019050919050565b60006020820190508181036000830152611c5a81611c1e565b9050919050565b6000604082019050611c766000830185611220565b611c836020830184611220565b9392505050565b7f446f63746f72206e6f7420617574686f72697a65640000000000000000000000600082015250565b6000611cc0601583611191565b9150611ccb82611c8a565b602082019050919050565b60006020820190508181036000830152611cef81611cb3565b9050919050565b7f4163636573732064656e69656400000000000000000000000000000000000000600082015250565b6000611d2c600d83611191565b9150611d3782611cf6565b602082019050919050565b60006020820190508181036000830152611d5b81611d1f565b905091905056fea26469706673582212200e3fdc892a1264bbf8872e045a5121574456c86c5e3ede4770a8501b839ad4d564736f6c63430008130033",
  "immutableReferences": {},
  "source": "// SPDX-License-Identifier: MIT\npragma solidity ^0.8.19;\n\ncontract Healthcare {\n    struct Patient {\n        string name;\n        uint age;\n        string gender;\n        string[] records;\n        address[] authorizedDoctors;\n    }\n\n    struct Doctor {\n        string name;\n        string specialization;\n        bool isRegistered;\n    }\n\n    mapping(address => Patient) public patients;\n    mapping(address => Doctor) public doctors;\n\n    //  PAYMENT EVENT\n    event ConsultationPaid(\n        address indexed patient,\n        address indexed doctor,\n        uint amount,\n        uint timestamp\n    );\n\n    // ---------------- PATIENT ----------------\n\n    function registerPatient(\n        string memory _name,\n        uint _age,\n        string memory _gender\n    ) public {\n        patients[msg.sender].name = _name;\n        patients[msg.sender].age = _age;\n        patients[msg.sender].gender = _gender;\n    }\n\n    // ---------------- DOCTOR ----------------\n\n    function registerDoctor(\n        string memory _name,\n        string memory _specialization\n    ) public {\n        doctors[msg.sender] = Doctor(_name, _specialization, true);\n    }\n\n    // ---------------- AUTH ----------------\n\n    function authorizeDoctor(address _doctor) public {\n        patients[msg.sender].authorizedDoctors.push(_doctor);\n    }\n\n    function revokeDoctor(address _doctor) public {\n        address[] storage docs = patients[msg.sender].authorizedDoctors;\n        for (uint i = 0; i < docs.length; i++) {\n            if (docs[i] == _doctor) {\n                docs[i] = docs[docs.length - 1];\n                docs.pop();\n                break;\n            }\n        }\n    }\n\n    function getAuthorizedDoctors(address _patient)\n        public\n        view\n        returns (address[] memory)\n    {\n        return patients[_patient].authorizedDoctors;\n    }\n\n    // ---------------- RECORDS ----------------\n\n    function addRecord(address _patient, string memory _record) public {\n        bool authorized = false;\n\n        for (uint i = 0; i < patients[_patient].authorizedDoctors.length; i++) {\n            if (patients[_patient].authorizedDoctors[i] == msg.sender) {\n                authorized = true;\n                break;\n            }\n        }\n\n        require(authorized, \"Doctor not authorized\");\n        patients[_patient].records.push(_record);\n    }\n\n    function viewRecords(address _patient)\n        public\n        view\n        returns (string[] memory)\n    {\n        if (msg.sender == _patient) {\n            return patients[_patient].records;\n        }\n\n        for (uint i = 0; i < patients[_patient].authorizedDoctors.length; i++) {\n            if (patients[_patient].authorizedDoctors[i] == msg.sender) {\n                return patients[_patient].records;\n            }\n        }\n\n        revert(\"Access denied\");\n    }\n\n    // ---------------- PAYMENT ----------------\n    // Patient  Doctor\n\n    function payConsultationFee(address _doctor) public payable {\n        require(msg.value > 0, \"Fee must be > 0\");\n        require(doctors[_doctor].isRegistered, \"Doctor not registered\");\n\n        payable(_doctor).transfer(msg.value);\n\n        emit ConsultationPaid(\n            msg.sender,\n            _doctor,\n            msg.value,\n            block.timestamp\n        );\n    }\n}\n",
  "sourcePath": "C:\\Users\\Varun\\healthcare-dapp\\contracts\\Healthcare.sol",
  "compiler": {
    "name": "solc",
    "version": "0.8.19+commit.7dd6d404.Emscripten.clang"
  },
  "schemaVersion": "3.4.16",
  "updatedAt": "2026-02-05T20:41:46.391Z",
  "networkType": "ethereum",
  "devdoc": {
    "kind": "dev",
    "methods": {},
    "version": 1
  },
  "userdoc": {
    "kind": "user",
    "methods": {},
    "version": 1
  }
}